S01800004A545F436F757273655F50726F6A6563742E73333738
S113000000000420C1010000ED010000ED0100002A
S1130010ED010000ED010000ED010000ED01000024
S1130020ED010000ED010000ED010000ED01000014
S1130030ED010000ED010000ED010000ED01000004
S1130040ED010000ED010000ED010000ED010000F4
S1130050ED010000ED010000ED010000ED010000E4
S1130060ED010000ED010000ED010000ED010000D4
S1130070ED010000ED010000ED010000ED010000C4
S1130080ED010000E1330000ED010000ED0100008E
S1130090ED010000ED01000001390000ED01000058
S11300A0ED010000ED010000ED010000C936000083
S11300B0ED010000ED010000ED010000ED01000084
S11300C0ED010000ED010000ED010000ED01000074
S11300D0ED010000ED010000ED010000ED01000064
S11300E0ED010000ED01000061340000ED010000AD
S11300F0ED010000ED010000ED010000ED01000044
S1130100ED010000ED010000ED01000010B5054C0B
S1130110237833B9044B13B10448AFF300800123AF
S1130120237010BDEC0100200000000028740000C2
S113013008B5034B1BB103490348AFF3008008BD66
S113014000000000F001002028740000154B002B73
S113015008BF134B9D46A3F5803A00218B460F46FA
S11301601348144A121A04F023FC0F4B002B00D03E
S113017098470E4B002B00D0984700200021040024
S11301800D000D48002802D00C48AFF3008004F0A5
S1130190EBFB2000290003F0F7FE04F0D1FB00BFC5
S11301A0000008000000042000000000000000001F
S11301B0EC01002094040020000000000000000076
S11301C0064880470649074A074B9A42BEBF51F882
S11301D0040B42F8040BF8E7FFF7B8FF79020000BC
S11301E03474000000000020EC010020FEE700BF92
S11301F000487047005A62020F4BD3F8943003F062
S11302000703032B14D0042B0FD0022B0AD00B4B63
S11302101868094BD3F80031C3F304230133B0FB4E
S1130220F3F07047064B1868F3E7064B1868F0E7DD
S11302304FF40040EDE700BF00400E4008000020EE
S1130240040000200C00002008B5FFF7D5FF054B83
S1130250054AD3F80831C3F308230133B0FBF3F0A4
S1130260106008BD00400E4000000020014B1868DB
S1130270704700BF04000020044B054A9A60D3F87D
S1130280882042F47002C3F88820704700ED00E033
S1130290000000004FF40040704700BF4FF47A7034
S11302A0704700BF014B1868704700BF0C00002066
S11302B0FEE700BF224B98423AD01AD9214B98420C
S11302C03AD00CD8204B984225D003F5371303F5C8
S11302D0D86398422AD11D4BD3F8A00070471C4B19
S11302E0984214D01B4B984220D1184BD3F8B0003D
S11302F07047194B984215D011D9184B984211D018
S1130300174B984212D1114BD3F88C0070470F4B06
S1130310D3F8AC0070470D4BD3F89C007047114BD9
S1130320984203D1094BD3F88000704700207047EE
S1130330064BD3F898007047044BD3F8A8007047D5
S1130340405DC60080BA8C010024F400B081E00F47
S11303500048E80180D5430280841E0000093D0066
S1130360C0CF6A0040420F0010B5144B144A5B68BA
S11303700024C9B28C42234608D00133052B02F174
S1130380080213D012F8084C8C42F6D152F80C4CE7
S11303908442F2D30B4A02EBC3035B791A06074982
S11303A04B6823F0407313434B6010BD40F6D831C3
S11303B00548FFF77DFF4FF04072F0E700000E4064
S11303C0706D0000646D0000506D000038B5074C7E
S11303D041F67133256C2364FFF70AFF0021FFF710
S11303E0C3FF0DB10023236438BD00BF00000E40DD
S11303F038B5054C41F67133256C2364FFF7B4FF1F
S11304000DB10023236438BD00000E40C0F3032364
S1130410013B30B4092B43D8DFE803F00D15424209
S11304202F3D1D423705214CC0F304302044800089
S113043030BC016070471E4CC0F30430204480007F
S113044030BC016070471B4CC0F304302044800072
S113045030BC01607047184CC0F304301025174BB2
S1130460D3F84421D207E1D4D3F840212A42FBD166
S11304702044800030BC01607047114CC0F304304C
S11304802044800030BC01607047C0F304300D4C40
S11304904FF48035E3E7C0F304300B4C0125DEE76D
S11304A041F23C11094830BCFFF702BF800AF21048
S11304B00000F2100006F2104007F21000400E4057
S11304C08005F2108007F2100007F210506D000052
S11304D000F00F00013808B507284AD8DFE800F01B
S11304E0121F2D49394149042F4BD3F85C3103F0D5
S11304F03003202B4AD0302B52D0102B0CBF0720B6
S1130500012008BD284BD3F8943003F00703023BC5
S1130510052B43D8DFE803F03A383640423E224BFD
S1130520D3F8800000F007000228EAD0042827D07E
S113053001280CBF0320012008BD1B4BD3F88430D5
S113054003F00703013B032B2CD8DFE803F01D1B4A
S11305502119154BD3F8880000F007000228E5D1D3
S113056008BD114B1B6F13F0010F14BF09200720A6
S113057008BD41F276610D48FFF79AFE002008BDE0
S11305800A2008BD022008BD032008BD042008BDC0
S1130590062008BD0C2008BD0B2008BD052008BDA1
S11305A0082008BD012008BD00400E40506D000029
S11305B038B52E4B984205460AD02D4B984207D0A9
S11305C02C4B984204D040F6C9412B48FFF770FEEB
S11305D02846FFF77DFF254B9D42044625D0244B3A
S11305E09D421CD0234B9D4213D040F6F841224833
S11305F0FFF75EFE042C04D8DFE804F009332F2152
S11306001D0040F64A511C48FFF752FE00242046C4
S113061038BD1A4BD3F8804004F00704EAE7174BBF
S1130620D3F8884004F00704E4E7144BD3F884407B
S113063004F00704DEE7BDE83840FFF72FBEFFF7FC
S113064003FE0E4BD3F80041C4F30064631C012481
S11306509C40B0FBF4F4204638BDBDE83840FFF7B9
S113066021BEBDE83840FFF715BE00BF03002000DF
S11306700500240002001E00506D000000400E40E2
S113068000F47810B0F5A01F08B500F09C801AD9CA
S1130690B0F5001F37D058D9B0F5381F38D06AD913
S11306A0B0F5401F6FD0B0F5481F19D16648FFF769
S11306B00FFF0138072800F2C080DFE800F0AEBE6B
S11306C0BEBABEBE43B0B0F5202F18D00FD9B0F5D6
S11306D0602F32D0B0F5801F34D0B0F5402F21D038
S11306E041F262215948FFF7E3FD002008BDB0F54F
S11306F0003F7DD0B0F5802F6FD00028F0D1BDE849
S11307000840FFF779BD5248BDE80840FFF750BFE5
S11307105048FFF74DFF504BD3F82031C3F301137A
S1130720D84008BDFFF768FD4B4BD3F81431C3F331
S113073004230133B0FBF3F008BD4848FFF7C8FEBB
S1130740072860D1464B186808BDB0F5D01F2DD0DE
S1130750B0F5F01F25D0B0F5B01FC1D13D48FFF76B
S113076027FF3D4BD3F82021012302F00F029340D1
S1130770B0FBF3F008BDB0F5101FB1D13948BDE8A6
S11307800840FFF715BF3248FFF712FF324BD3F88A
S11307902831C3F301231A1D01239340B0FBF3F066
S11307A008BD2C48BDE80840FFF702BF2848FFF702
S11307B0FFFE294BD3F828210123C2F301129340F1
S11307C0B0FBF3F008BD2748FFF7F2FE224BD3F845
S11307D0303103F00303D84008BDFFF70DFD1E4B75
S11307E0D3F80C31C3F308230133B0FBF3F008BD95
S11307F0FFF702FD184BD3F80831C3F30823013384
S1130800B0FBF3F008BD09283FF479AF40F69A2114
S11308100E48FFF74DFD002008BD002008BDFFF77E
S1130820EBFC0D4BD3F80031C3F3042303FB0000AE
S113083008BDBDE80840FFF719BD40F6D1210348C3
S1130840FFF736FD002008BDB8003200506D0000EF
S11308500300200002001E0000400E4006000E00AF
S11308601000002005002400C0F30313013B70B501
S11308700C46092B00F2F680DFE813F0C600E30013
S1130880F4002800F400F4003C00830095000A0002
S1130890B94B984240F03E81022900F2B081B74B37
S11308A0D3F84421D10708D5B44AD2F8303123F023
S11308B003031C43C2F8304170BDD3F840215203F6
S11308C0F2D5D3F840215203F7D4EDE7B1F5007F18
S11308D004D341F27231AA48FFF7EAFCA74AD2F8DE
S11308E00C3123F4FF3323F4807343EA0424C2F865
S11308F00C4170BDB1F5007F80F00081FFF766FD0B
S1130900A04B9E4A01211960D2F8003143F0807354
S1130910C2F80031D2F8083123F4FF3323F4807392
S113092043EA0424C2F80841FFF78EFC964B1C6886
S1130930002CFCD1954B964D59682E6C41F67133C1
S1130940C1F301412B64FFF70FFD06B12C649148FC
S1130950FFF796FE904B984240F28B808F4B012418
S113096098428CBF4FF000734FF080738549834ADF
S11309700C60D2F8000120F080701843C2F8000126
S113098070BD874B984200F0CC80864B984200F0B3
S11309900F81794B98427AD041F206417848BDE8FC
S11309A07040FFF785BC804B98427ED003F5B013AE
S11309B003F5805398425ED1A1F10F03702B00F22E
S11309C03381651CB5FA85F5C5F11F061F2E00F2AB
S11309D040810123B340013B9C4204D040F669218D
S11309E07248FFF765FC654BD3F84421D407C5F181
S11309F01B0547D5614AD2F8283123F4407343EAF2
S1130A000525C2F8285170BD1F297DD8FFF7DEFCEB
S1130A105C4B5A4A01211960D2F8003143F08073CB
S1130A20C2F80031D2F8003123F4F85343EA042425
S1130A30C2F80041FFF708FC534B1C68002CFCD1A2
S1130A4078E71F2904D941F26B314D48FFF730FC98
S1130A504A4AD2F8143123F4F85343EA0424C2F87E
S1130A60144170BD41F27E414548BDE87040FFF736
S1130A701FBC00237AE741F23C414148BDE8704085
S1130A80FFF716BCD3F840215006FBD4B2E7022985
S1130A9000F20A81394BD3F84421D1073FF504AF62
S1130AA0D3F840215203FBD4FEE6082900F2AD80BE
S1130AB0651CB5FA85F5C5F11F051F2D00F2C3802D
S1130AC00123AB40013B9C4204D040F669213748E6
S1130AD0FFF7EEFB294BD3F84421D20709D5274A67
S1130AE0D2F8283123F0300343EA0515C2F828511F
S1130AF070BDD3F840215606FBD4F0E741F28831AB
S1130B001F48FFF7D5FBF9E641F255311C48FFF7C2
S1130B10CFFB7BE741F256411948BDE87040FFF72F
S1130B20C7BBB1F5004F00F2AE8000F0B180651C88
S1130B30B5FA85F5C5F11F051F2D00F2AF8001231D
S1130B40AB40013B9C4204D040F669211748FFF7B3
S1130B50AFFB0A4BD3F84421D60708D5074AD2F88D
S1130B60203123F00F031D43C2F8205170BDD3F888
S1130B7040215407FBD4F1E7A009140000400E40C3
S1130B80506D00004000C843C800C64300300E400A
S1130B9000000E4000250A000048E8010090D00340
S1130BA08006160080162E0090171A00EC6C0000C8
S1130BB0082954D8651CB5FA85F5C5F11F051F2D04
S1130BC05BD80123AB40013B9C4204D040F6692131
S1130BD03848FFF76DFB384BD3F84421D00709D5CB
S1130BE0354AD2F8203123F0300343EA0515C2F820
S1130BF0205170BDD3F840215107FBD4F0E741F2F6
S1130C0046412E48FFF754FB49E641F20F412B4879
S1130C10FFF74EFBB4F5004FFFF44AAF40F66321F3
S1130C202448FFF745FB43E741F22D412348FFF7F2
S1130C303FFBB4F5004FFFF4C4AE40F663211D48FA
S1130C40FFF736FBBDE640F64E211A48FFF730FBAE
S1130C5036E740F64E211748FFF72AFBB9E641F282
S1130C60E8311648FFF724FBB4F5004FA2D340F651
S1130C7063211048FFF71CFB9CE740F64E210D480A
S1130C80FFF716FB9DE741F2CA310C48FFF710FB52
S1130C9040F663210748FFF70BFB48E740F64E2177
S1130CA00448FFF705FB4AE741F2AD310348FFF77B
S1130CB0FFFAEFE6EC6C000000400E40506D0000BF
S1130CC02DE9F0470546FFF7F5FA431E03330646C0
S1130CD072D8DFF8C0811120D8F80070C8F800502D
S1130CE0FFF7F6FB052800F082805E4B1C68002CA1
S1130CF0FCD1731C75D05C4B9D426DD05B4B9D4207
S1130D0060D05B4B9D4220D01120FFF7E1FB05280A
S1130D1024D1584B9D425CD9574901208D428CBF48
S1130D204FF000714FF08071544B554A1860D2F85F
S1130D30003123F080730B43BD42C2F800310FD958
S1130D400121284600F0ECFD0AE026F0C06646F0DA
S1130D5080661120FFF7BCFB05283AD0BD42EFD8CE
S1130D60474B11201E61FFF7B3FB052842D04548CD
S1130D70FFF786FC3F4B98421CD93F4B0124984215
S1130D808CBF4FF000734FF080733C493C4A0C60B9
S1130D90D2F8000120F080701843BD42C2F800016F
S1130DA003D80121002000F0BBFD1120BDE8F0476D
S1130DB0FFF78EBB0023E8E741F6FF213248FFF737
S1130DC077FA86E71120FFF783FB052826F0C06633
S1130DD0C4D100200146A7E726F0C06646F000769D
S1130DE0B7E741F610312848FFF762FA83E7FFF7C7
S1130DF0EDFA7AE7FFF728FA854281462CD3D8F832
S1130E0000304B4520D39D4218D1204B1E68002E44
S1130E10FCD11F4BDFF880805968D8F840A041F618
S1130E2071334846C1F30141C8F84030FFF79CFADA
S1130E30BAF1000F9BD0C8F8406098E741F63E3104
S1130E401148FFF735FAE0E741F63D310E48FFF768
S1130E502FFAD8F80030D6E741F63C310A48FFF7BC
S1130E6027FACCE76028C84380841E0000093D00AF
S1130E7040420F000048E8010090D0034000C843FE
S1130E8000400E4000250A00506D0000C800C64313
S1130E9000300E400800002000000E40013810B55C
S1130EA00C4603284ED8DFE800F0203211027F29D7
S1130EB061D8344A04F07F041368002BFCD1324A11
S1130EC0936923F07F031C43946110BD7F294CD8A0
S1130ED02E4A04F07F041368002BFCD12A4A1369BC
S1130EE023F07F031C43146110BDB1F5007F36D29B
S1130EF0274AC4F308041368002BFCD1224A136A5E
S1130F0023F4FF7323F001032343136210BD1E4B2C
S1130F10D3F890305B071CD41B491E4B4A6A22F05D
S1130F20300242F010024A62086BC4F3C312033267
S1130F3003400F2A44EA030428BF0F2244EA027440
S1130F400C6310BD41F668611348BDE81040FFF71B
S1130F50AFB941F64E611048FFF7AAF9DCE741F654
S1130F6017610D48FFF7A4F9C2E741F624610A4866
S1130F70FFF79EF9ACE741F63F610748FFF798F9A0
S1130F8097E700BF6428C84300400E406028C84368
S1130F906828C84300F8FF0F506D0000022810B500
S1130FA00C4604D04FF4F4511348FFF781F9134B66
S1130FB05B6A13F0300F0BD0202C19D0302C07D0E3
S1130FC034B141F69B610C48FFF772F90C4A01E019
S1130FD04FF440020949D1F8903032EA0303FAD1C0
S1130FE053024ABFD1F8A0000120C0F3802010BDF5
S1130FF04FF40002EEE700BF506D000000400E40C9
S1131000FF33E107F0B5044683B00E4604287FD8C9
S1131010DFE800F003595F7953004FF400754FF493
S1131020807708234FF0090C96B9012098404A496B
S11310300D66D1F890300342FBD13AB10122464902
S113104002FA0CF2D1F890301342FBD103B0F0BD98
S113105042491944890000263F4B1F660B68002B48
S1131060FCD0002AF2D03D4D6544AD002B68002B26
S1131070FCD0022CEAD1002EE8D0374A516A11F094
S1131080010165D04FF480632021C2F8A8302046C6
S11310905166FFF783FF304CD4F89C600122002195
S11310A00220FFF7AFFFC6F30A010220FFF7F6FEA6
S11310B027662B68002BFCD0C8E7202510270423C3
S11310C04FF0050CB0E78025402706234FF0070CAE
S11310D0AAE7002937D0204B5B6A13F0300F1FD1E9
S11310E01F4BDB6B580526D51B4B596AC9071DD509
S11310F0586A1C4920F0300040F010005862042760
S11311004FF0030CA8E70127BC46022500238BE718
S1131110154841F6655103B0BDE8F040FFF7C8B883
S1131120104904274FF0030C002695E70D490427C6
S11311304FF0030C90E741F674510B480192FFF70E
S1131140B7F8019AD0E7042008254FF0030C6EE7A6
S11311502046FFF723FF9EE700400E408004F21074
S113116000300E400812C843506D00001128F8B535
S11311700C460AD000F00F000138072863D8DFE8D6
S113118000F0093F43621B286231042900F0928079
S113119005293BD00025023C0A2C00F22881DFE817
S11311A014F0F900FC0006011301260126012601B2
S11311B02601FF00B400F7000629944D57D0013CE6
S11311C0092C47D8DFE804F03D362F4646584646FA
S11311D0462C072900F01581092972D18C4B012274
S11311E01A67F8BD4C1E072C00F2FA80DFE814F0F1
S11311F08B00F800F8008400F800F8007D0073000C
S113120006292ED0834DDAE7834DD8E7834A844BF1
S113121015689D42BED90021284600F081FBBAE73B
S113122004232B60F8BD012211461046FFF7EAFEA5
S11312300123F6E7012211460020FFF7E3FE022313
S1131240EFE70023EDE741F66D117648BDE8F8407D
S1131250FFF72EB841F2AE717248BDE8F840FFF7CF
S113126027B841F275716F486A4DFFF721F86D4850
S113127041F28971FFF71CF8FEF7E6FF6A4B9842CA
S113128026D96A4B012498428CBF4FF000734FF06B
S1131290807367495E4A0C60D2F8000101F5AE51D3
S11312A0083120F0807018430124C2F800010323A0
S11312B00C60B6E7FEF7DAFF054600283FF46AAF94
S11312C0A9E741F638015748BDE8F840FEF7F0BFFA
S11312D000231C46DDE730214D4AD2F85C3123F06F
S11312E030030B43C2F85C31F8BD012211460420DF
S11312F0FFF788FE1021EFE7012211460220FFF7D5
S113130081FE2021E8E70021E6E7032005240122ED
S11313101146FFF777FEFFF759F81DB1454A1368E8
S1131320002BFCD13A4B44485C67FFF7A9F93E4BCC
S1131330984263D93D4B012498428CBF4FF000730F
S11313404FF080733A49324A0C60D2F8000120F021
S113135080701843C2F80001FEF776FF354B1C6815
S1131360002CFCD1354B364E5968376C41F671333D
S1131370C1F301413364FEF7F7FF07B13464002D74
S11313807FF42FAF28460121BDE8F84000F0C8BA29
S11313900724C0E700200424B9E701200324B6E7AA
S11313A041F234711F48BDE8F840FEF781BF204B7D
S11313B0174A01211960D2F80031022043F08073EA
S11313C0C2F800310446A2E7194B114A01241C60FB
S11313D0D2F8003143F08073C2F80031032096E75D
S11313E041F696010F48BDE8F840FEF761BF41F2AF
S11313F039710C48BDE8F840FEF75ABF00231C467B
S1131400A0E7034B00221A67F8BD00BF88400E40D6
S113141000400E4080400E4084400E4008000020F2
S1131420002D3101506D00000048E8010090D00308
S11314304000C843C800C64300250A0000300E40DF
S113144000000E4038B504461120FFF741F8042887
S11314504DD0012200210220FFF7D4FD637813B997
S1131460A378002B36D041F65B412448FEF720FFD9
S1131470217C012934D0224A2248536A257823F05A
S11314800103022908BF43F0010353620560A388E6
S1131490617AE58841EAC321D162136B207AA17A8B
S11314A003F07F630B43C11C43EAC5230F2943EABE
S11314B0C01328BF0F2143EA01731363A37B657B29
S11314C0E07B217B1B0143EA0533034343EA0143E9
S11314D0536338BDE378002BC5D1217C0129CAD1DF
S11314E04FF4E3510548FEF7E3FE217CC3E741F6E0
S11314F01D410248FEF7DCFEABE700BF506D000063
S113150000400E40A004C84338B542EA032340F229
S11315100112934205460C4660D0B3F5817F14D383
S113152040F20122934250D030D9B3F5407F24D009
S113153040F2013293423ED12D4BD3F878311A0E4A
S1131540C3F307432B60226038BD012B2AD00BD391
S1131550B3F5807F2FD1264BD3F86C311A0EC3F329
S113156007432B60226038BD214BD3F86C31C3F3A1
S11315700722DBB22B60226038BD1D4BD3F87031DB
S11315801A0EC3F307432B60226038BDB3F5007F06
S113159011D1174BD3F87031C3F30722DBB22B60A0
S11315A0226038BD124BD3F87431C3F30722DBB287
S11315B02B60226038BD40F2D3710E48FEF778FEEE
S11315C0002213462B60226038BD094BD3F87831D2
S11315D0C3F30722DBB22B60226038BD044BD3F87F
S11315E074311A0EC3F307432B60226038BD00BF69
S11315F0B081E00F8C6D0000094A1368002BFCD108
S1131600084B19685A68C1F30121C2F3014291429F
S11316101A688CBF42F0100222F010021A60704760
S1131620C800C64300300E40044B1B69C3F3044397
S1131630082B02D1024B034A1A60704700400E4047
S113164008000020C0EA210170B5274B274C197807
S1131650274B284D284AC1F1020010218140216105
S113166045F60E01D3F88041C3F88011286840F292
S11316705511014004F0010419661368002BFCD1D4
S11316801A4B1B68D80617D5194AD2F84031D9012C
S1131690FBD41A4E1A4B31781B681361052916D0F6
S11316A01120FFF763FD2B68DB070CD51CB1104B31
S11316B00022C3F8802170BD104E31780529EFD186
S11316C02B68DB07F2D40A4B02221A66EEE70D4BB5
S11316D0094A18681368002BFCD1044B5968C1F3FC
S11316E00141FEF785FEE8E71902002000300E40B4
S11316F000400E4008020020C800C6431202002029
S113170014020020080000201C4B022810B5D3F856
S113171080310C4620D003281CD0012814BFDBB232
S1131720C3F307231B0323F4704244B9BAB9144921
S1131730CA6E22F470421343CB66012010BDAAB9CD
S11317400F49D1F8EC2022F470421343C1F8EC3075
S1131750012010BD1B0EE5E7C3F30743E2E740F2A7
S113176062710848FEF7A4FD204610BD40F26E7178
S11317700448FEF79DFD002010BD00BFB081E00FBE
S113178000300E408C6D00000C4A08B50C4BD2F8AA
S113179090201A601120FEF79BFE0A4B0A4A18702B
S11317A01368002BFCD1094B09485B680349094ABB
S11317B0C3F3014303700B69136008BD00400E407E
S11317C00802002012020020C800C64300300E4068
S11317D0190200201402002010B50446B0B9FFF726
S11317E00BFF0E4A136943F00403136130BF84B93D
S11317F00B4B1B68DB0603D4BDE81040FEF724BD89
S1131800FFF712FFBDE81040FEF71EBDFFF7BCFF57
S1131810E5E7BDE81040FFF717BF00BF00ED00E0AB
S113182000300E4010B5044618BBFFF7E5FE144B1C
S1131830D3F88021D20748BF002245F60E01C3F831
S1131840801148BFC3F880210E4A136943F0040392
S1131850136130BF84B90C4B1B68DB0603D4BDE8AD
S11318601040FEF7F1BCFFF7DFFEBDE81040FEF7C5
S1131870EBBCFFF789FFD8E7BDE81040FFF7E4BEF3
S113188000400E4000ED00E000300E401F4B2DE9FB
S1131890F04104460E46D3F80051FEF7ADFC1C4A55
S11318A007461368002BFCD11A4A5368C3F301435B
S11318B09C4229D0C4F102081023022C03FA08F830
S11318C00DD0C2F810801EB1114A1368002BFCD150
S11318D0D4B921463846BDE8F041FEF789BDC5F3C9
S11318E004250D4B05FB07759D4204D940F2B34115
S11318F00A48FEF7DDFC02213846FEF779FD054B68
S1131900C3F81080002EDFD1BDE8F08100400E4006
S1131910C800C64300300E40002D31018C6D00001C
S113192010B5104B82B0D3F8004158B10E4B1B7860
S113193013B10E4B98420ED9002002B0BDE81040FE
S1131940FFF7A4BF0191FEF757FCC4F3042404FB82
S113195000000199EAE7022002B0BDE81040FFF759
S113196095BF00BF00400E4018020020FF2C31013B
S1131970094942780B6823F4407343EA0223022A9C
S11319800B6000D07047054B5B6A9B00FAD540F2B0
S1131990ED410348FEF78CBC00300E4000400E4081
S11319A08C6D00001E4A936FDB07FCD4136C13F09C
S11319B003031CD01B4A0121834211601CD0032B5A
S11319C002D1431E012B18D9154A936FD907FCD4B1
S11319D0136C134923F00303034313648B6FDB0776
S11319E0FCD400300F4B18BF01201860704700284A
S11319F0E7D10C4B186070477047094A4FF4002335
S1131A00D362936FD907FCD4136C054923F0030305
S1131A1043F0010313644B6A1B03FCD5D4E700BFF6
S1131A2000300E40B40AC6432DE9F04F044689B095
S1131A30A0F5E1600025B0F5966F0191CDE902555E
S1131A40CDE90455CDE9065500F284805D4BB4F52B
S1131A50E16F9346D3F868318CBF4FF001084FF023
S1131A60000863D1C3F30722DBB2079204934FF457
S1131A7016794FF4966A544FFD6CC5F3017505A9A8
S1131A8002A82B464246FFF73FFDD7F8EC60C6F3A9
S1131A9001264246334606A903A8FFF735FD049AFA
S1131AA00798A4EB0A01831A01FB03F3B3FBF9F3D0
S1131AB0D3182CBF01220022984241D3002A3FD1DF
S1131AC00698DDF80C80A0EB080201FB02F2B2FBE1
S1131AD0F9F218EB02082CBF0122002240452FD353
S1131AE072BB059A0298A2EB000C01FB0CF1B1FB4E
S1131AF0F9F910EB09092CBF012100214A451FD334
S1131B00F1B9BBF1000F0DD0FA6D22F4FE4222F0C0
S1131B10020242EA0323B4F5E16F2B4A18BF43F0F3
S1131B200203D365019BF3B901250FE01A0EC3F339
S1131B300743079204934FF496694FF4E16A9AE7D6
S1131B4040F654112148FEF7B3FB0025284609B09E
S1131B50BDE8F08F40F606111C48FEF7A9FB2846A5
S1131B6009B0BDE8F08F28460021FFF7CDFD0546FA
S1131B70E0B130460121FFF7C7FD0546E0B1124A46
S1131B80536EC14538BFC14623F4FF73B9F1E70F63
S1131B9023F0010328BF4FF0E709B4F5E16F18BF44
S1131BA043F0010343EA49035366CFE740F6631168
S1131BB00648FEF77DFBC9E740F66B110348FEF7C4
S1131BC077FBC3E7B081E00F00300E408C6D00005E
S1131BD038B53B4B1A6FD96CCC0702F007020BD512
S1131BE0012A55D9132850D9143813288CBF4FF41F
S1131BF07F414FF4EE410CE0D96CCD073FD4012A6C
S1131C0053D9DB6C2F4840F6A911FEF751FB6FF056
S1131C10FF012B482C4AC36C2C4C23F47F430B4309
S1131C20C364C16C1388C26CC1F30321013128332E
S1131C3001EB810503EB5303B3FBF5F3013B072BE6
S1131C4022F0EE6228BF072342F4801242EA0363C3
S1131C50B4F90020C364002A10DB036D4C08283259
S1131C6004EB410102EB520223F07004B2FBF1F3E6
S1131C70072B28BF072344EA0313036538BDDB6C35
S1131C80DC07BFD5012ABDD808E04FF44C51C0E7AA
S1131C90DA6CD20709D5DB6CDB07B3D527288CBFF8
S1131CA04FF47F414FF4EE41B3E70928EDD90A38E8
S1131CB009288CBF4FF47F414FF4EE41A9E700BFE0
S1131CC000300E408C6D00000E0200201002002037
S1131CD00B4B1B6810B5044633B9012804D940F6F0
S1131CE0C8110848FEF7E4FA074B084A186F20F0B9
S1131CF0070020431867BDE810401088FFF768BF4D
S1131D008009C6438C6D000000300E400C02002098
S1131D106B4B022270B59A639B6B03F00F039342E3
S1131D2022D10389C82B044600F28680A2889A42F5
S1131D3000F28C80B4F90C30C82B00F391806378E6
S1131D40012B6CD0022B00F0B080E38842F21072B9
S1131D50934200F2A3804A2B0ED9B3F5FA7F80F0A8
S1131D6089804FF0805008E040F66D015548002509
S1131D70FEF79EFA284670BD00205149B4F90C6064
S1131D80CB6C514D23F0405323F00103002EA8BF28
S1131D9043F001030343CB64D1F8EC3043F44073C4
S1131DA0C1F8EC30CB6E43F08073CB662868002812
S1131DB031D1FFF78DFF454A454BA0884549258918
S1131DC01080B4F90C201A800D80FFF701FFA37B6B
S1131DD0002B5FD0012B2BD040F213713948FEF752
S1131DE067FA012211466088FFF71EFE05460028A7
S1131DF049D0334A6078D36B43F48063D363FFF7ED
S1131E00D1FDA37A344AA3F12003B3FA83F35B0927
S1131E101360284670BD0420FFF75AFFCBE7A38860
S1131E20C82B92D940F67D012648FEF741FA8CE78B
S1131E30234B2A4A9A65D4E740F677012148FEF7F6
S1131E4037FA2389A2889A427FF674AF40F6780164
S1131E501C48FEF72DFAB4F90C30C82B7FF76FAF8E
S1131E6040F679011748FEF723FA6378012B7FF4D3
S1131E7069AFD4E740F6C31083428CBF4FF04050A3
S1131E804FF0005079E740F6C1010E48FEF710FA12
S1131E90284670BD0A4B124A9A65A2E740F68A01A9
S1131EA00848FEF705FAE38855E7A3880A2B7FF66E
S1131EB04CAF40F682010348FEF7FAF945E700BF4C
S1131EC000300E408C6D00008009C6430C020020D7
S1131ED0100200200E0200209407C643372110B7D9
S1131EE077402057032838B504460D461BD90428EB
S1131EF005D0052817D0A0F10803022B13D983219C
S1131F000B48FEF7D5F904EB4400000100F18040D2
S1131F1000F5204000F1806300F1C0604FF0011231
S1131F201A60056038BD35F00113E8D1EBE700BF56
S1131F30A06D00002DE9F0410D4617469846044671
S1131F40E8B1012800F0B480022800F0F4800328EE
S1131F5000F0EE80042800F0A580052800F021811F
S1131F60831F012B40F29E80082800F02981092854
S1131F7000F031810A2840F09580072301E040F207
S1131F80FF332B41DE0740F18D80002F3CD16600EA
S1131F90072D25D833191B0103F1804303F5204392
S1131FA0A9005A680F20884022EA000207FA01F1CA
S1131FB00A435A6097B9B8F1000F57D1002C7AD16F
S1131FC040F2FF332B41DB0740F1B8808D4B3444A2
S1131FD024012344012202FA05F51D60BDE8F081C5
S1131FE03119090101F1804101F5204105F18040D9
S1131FF008388B6880000F22824023EA020307FA24
S113200000F018438860D5E7B8F1000F10D0002C19
S113201068D140F2FF332B41D80740F19580660028
S1132020794B3219120113440122AA401A60AFE716
S1132030002C6CD0012C00F0AB80022C00F0B4809A
S1132040032C00F09680042C00F08480052C00F012
S1132050B980A31F012B7DD9082C00F0C380092C63
S113206000F0C7800A2C75D1072352E0002C57D00A
S1132070012C00F09080022C00F09C80032C7ED078
S1132080042C6DD0052C00F0A380A31F012B67D96D
S1132090082C00F0A580092C00F0AE800A2C5FD13A
S11320A007233FE040F213115848FEF701F96CE7AB
S11320B04FF6C07365E7012C64D0022C6ED0032C5C
S11320C054D0042C3AD0052C77D0A31F012B35D93A
S11320D0082C00F08380092C00F088800A2C2DD174
S11320E007236FE7012C50D0022C60D0032C43D07F
S11320F0042C29D0052C68D0A31F012B24D9082C2B
S113210072D0092C7BD00A2C1ED1072383E740F21E
S1132110FF332B41D9071DD566003219394B81E7AE
S113212040F2FF332B41DA071AD53444364B4FE7DC
S11321304FF47F4325E740F6FF7322E740F2DD3199
S11321403348FEF7B5F841E740F20C413048FEF75A
S1132150AFF864E740F2DD312D48FEF7A9F8DBE77C
S113216040F20C412A48FEF7A3F8DEE74FF47F4320
S113217028E74FF47F43CCE74FF47F434BE74FF41A
S11321807F43CFE74FF6C0731CE74FF6C07342E7B7
S11321904FF6C073BDE74FF6C073C3E740F6FF7355
S11321A010E74FF6FF73ECE640F6FF73B1E740F635
S11321B0FF7330E740F6FF73B4E74FF6FF7301E7B0
S11321C00F23DEE64FF6FF73A3E74FF6FF7322E714
S11321D04FF6FF73A6E74FF44043D2E60F23F1E630
S11321E00F239FE70F2394E70F2314E74FF4404393
S11321F0E8E64FF440438CE74FF4404392E74FF452
S1132200404308E70CA000440CA00046A06D000069
S1132210B46D0000002A54D0F8B50F460168054695
S113222003F0030621F4407100F1C063144600F189
S11322308062296030024FF440711160186057B910
S11322402F4B9D4256D02F4B9D4243D040F22F112D
S11322502D48FEF72DF82B689A071ED5032E35D18D
S11322604FF4B2712848FEF723F8284B9B5D04FB1A
S113227003F3FBB16FEAC4041C443C44B4FBF3F421
S1132280013C2CD4B4F5007F2ED22B689B0702D5D9
S1132290002C08BF01242C61F8BD032EE0D01C4B98
S11322A053F826309F42DBD9184B9B5D04FB03F3A4
S11322B0002BDFD140F275111348BDE8F840FDF75B
S11322C0F7BF40F215111048FDF7F2BF114B53F858
S11322D02630E7E71048FEF7D3F90746BBE740F29C
S11322E07B110948FDF7E4FF4FF4BE710648FDF782
S11322F0DFFFCAE70948FEF7C3F90746ABE700BFAB
S113230000C0004000C40040306E0000446E000075
S1132310246E0000186E0000009204000082040085
S113232038B5094B984204460D4608D003F580633E
S1132330984204D040F295110448FDF7B9FF04F126
S113234004746401256038BD00C00040306E000094
S1132350124B984270B504460D4608D003F58063CD
S1132360984204D04FF4D5710D48FDF7A1FF697868
S11323700C482B7B620102F18442002681F00101AA
S11323802664E0635160D5E901122046FFF742FF5D
S113239029782046BDE87040FFF7C2BF00C0004066
S11323A0306E0000FFFF07000D4B984270B50446E5
S11323B00D46164609D0BD210A48FDF779FF65B1DF
S11323C0012D01D11434266070BD0129F3D8130CFA
S11323D01B04002BEFD1002DF2D11034F3E700BF22
S11323E000600440486E000038B5084B984204462B
S11323F00D4603D0EA210648FDF75AFF15B902231A
S1132400636038BD0123636038BD00BF00600440D1
S1132410486E00001D4B984270B505460C4604D02A
S11324204FF4A5711A48FDF743FF217821B9AB6831
S1132430DA0744BF02236B606278A078E368002A5D
S113244014BF4FF480520022E0B9DBB9E3780BB13A
S113245042F4807223790BB142F0400263790BB1EC
S113246042F08002E379A679207A1B0143EA8603CD
S1132470034313432B6021B1AB68DB075CBF01232B
S11324806B6070BD42F400722B61DFE700600440B2
S1132490486E0000436B002BFCD1704770B50546B5
S11324A00C4616462AB36CB9184B9D4206D04FF41D
S11324B096711748BDE87040FDF7FABE1548FEF75F
S11324C0DFF804466401144BB4FBF6F4203CE4004A
S11324D09C4214D82B6C104AD90702EA040201D595
S11324E0EA6070BD6B6C5B07FAD56B6C5B07F9D463
S11324F0F6E74FF482710648FDF7DAFED3E740F2BF
S113250039110348FDF7D4FEE4E700BF00A00440FE
S1132510606E000090171A00F8FF010038B50C4BEC
S1132520984204460D4604D040F25D110948FDF777
S1132530BFFEE943236C490001F00A01DA0741EACE
S1132540050102D4636C9B07FCD4616038BD00BFF5
S113255000A00440606E0000154B984270B504461C
S11325600E4604D04FF4DF711248FDF7A1FE236C30
S1132570DA0702D4636C9B07FCD40A236360656C9E
S1132580002DFCD101232364707B337BB17B226853
S1132590034322F01C020B4313432360D6E90112C8
S11325A02046FFF77BFF33786360256470BD00BF6E
S11325B000A00440606E0000F8B52F4B984204461A
S11325C00D460FD003F5806398420BD003F5E0531A
S11325D0984207D003F58063984203D09521274899
S11325E0FDF766FE2A780AB902236360EB78A978BE
S11325F0287A6F78EE791B0443EA0163A9790343CF
S113260043EA8123687A002F43EA0623AE7A2F7BBC
S113261014BF402100210028E87A43EA010314BFD3
S113262080210021002E43EA01032E7914BF2021CA
S11326300021002843EA0103687914BF1021002116
S1132640002F43EA010314BF08210021002E43EAAE
S1132650010314BF4FF400510021002843EA010391
S113266014BF4FF0805100210B43002161622360AD
S11326700AB101236360F8BD00800140786E000058
S113268070B5044684B01748174DFDF7F9FF174A93
S11326900346A2FB03239B091548012104FB03F411
S11326A0FDF7B4FE002302930126CDE900338DF833
S11326B00C30A40A0A23694628468DF802308DF8A6
S11326C00B608DF80860FFF777FF6C622B466E6035
S11326D0596A0029FCD102225A600548FDF796FE8A
S11326E004B070BD4041050000800140D34D62102C
S11326F00002040070B58CB002220B900B240A2156
S11327004FF47060012303948DF808208DF80020A5
S113271001910A900F260B4D0B488DF821300024AF
S11327206A4604A98DF820308DF810308DF81130E8
S11327308DF8183009960595079400F0CFFD0CB07C
S113274070BD00BFDDFB050000C0004000000000BC
S113275008B5174B186801F017FE0FA3D3E900233F
S113276001F08CFE0022134B01F088FE0CA3D3E988
S1132770002301F0CBFC02F093F801F027FE0AA33A
S1132780D3E9002301F07AFE00220B4B01F0C0FCD8
S113279002F086F808BD00BFD7A3703D0AF7654074
S11327A0CDCCCCCCCC6C4740CDCCCCCCCCCCFC3F31
S11327B01C0200200000F03E0000404010B586B02E
S11327C0074B084903934022F323022468460594E7
S11327D000910492019300F083FE06B010BD00BF87
S11327E01C02002000C0004070B58AB00023012202
S11327F0039102901C260225042469460B488DF897
S113280001308DF804308DF805308DF800308DF8E6
S113281010308DF81830ADF8026005928DF8202044
S11328200795099400F0B4FE0AB070BD006004403E
S113283008B500F0B5FA00F0E1FA01F037FB01F059
S113284057FB06490648FFF7CFFF0820FFF752FF62
S11328501020BDE8084001F031BB00BFCDCCCC3D19
S11328606666464008B501F03DFB430703D4712179
S11328700448FDF71DFD042001F02AFBBDE80840D3
S1132880FFF79CBFC86E000008B504488F21FDF710
S11328900FFD0120BDE8084001F01ABBC86E00001E
S11328A008B50448A221FDF703FD0220BDE8084055
S11328B001F00EBBC86E000010B52DED028B84B084
S11328C001F010FB030744D5082001F001FBFFF7DA
S11328D03FFFDFED227A08EE100AB4EEE78AF1EE4C
S11328E010FAACBF1E4B1F4B20221A6000F020FAD6
S11328F088B918EE100A01F069FD6C4602460B46D1
S11329002046194902F0BCFC204600F06BF904B0E3
S1132910BDEC028B10BDDFED157A38EE678AF1EE5F
S1132920047A28EE278AF2EE027AC8EE277A6C46F9
S113293017EE900A01F04AFD02460B4620460C4968
S113294002F09EFC204600F04DF904B0BDEC028B71
S113295010BDB7210748FDF7ABFCB5E70000A04266
S1132960FCA00046FCA00044F46E000000000042FD
S1132970E46E0000C86E000008B501F0B3FAC306A7
S113298003D4E2210B48FDF793FC102001F0A0FAD8
S11329904021202000F044F800F02CF9064800F013
S11329A021F9064800F01EF90548BDE8084000F08A
S11329B019B900BFC86E00008C6E00009C6E000048
S11329C0B46E000008B501F08DFA830603D4FE212D
S11329D00748FDF76DFC202001F07AFA0548012133
S11329E000F0A6FD0020BDE8084000F087B800BF55
S11329F0C86E00000060044008B501F073FA430695
S1132A0004D44FF488710548FDF752FC402001F0CE
S1132A105FFABDE8084000F091B900BFC86E00003D
S1132A2030B5164B8DB00024CDE90A104FF4165181
S1132A3005204FF490521C70009101238DF805007D
S1132A40122569460E4807928DF824308DF82530FA
S1132A50069308938DF804408DF8064002948DF88F
S1132A600740059501F08AF9064B4022C3E9124458
S1132A7083F840405A640DB030BD00BF700200209E
S1132A8000A0044020020020F8B51A4D044602F0CC
S1132A9029FCD5E91113D5F84CE00B440130A3EB24
S1132AA00E03C6B2DBB29E421BD8012E05F80E609F
S1132AB010D9A4F1020CC4F10207B4447744601E97
S1132AC03A1810F8014FB2FBF1F301FB13238445CC
S1132AD0EC54F5D17644B6FBF1F301FB1366EE64D6
S1132AE0F8BD4FF402710448FDF7E2FBD5F84CE061
S1132AF0696CDAE720020020647000002DE9F843D5
S1132B00344DD5E912239B1A13F0FF0400AF05D10D
S1132B104FF001084046BD46BDE8F88306462E48FE
S1132B2001F0BEF980460028F2D1AB6C15F8039091
S1132B3009F1FF395FFA89F94C4531D9696CCA1D2D
S1132B4022F00702ADEB020D09F1010E6C469E4422
S1132B50B9F1000F2BD00DF1FF3001338446B3FBE4
S1132B60F1F201FB12320133AA5C0CF8012F734518
S1132B70F5D1B3FBF1F201FB12330022AB6404F88C
S1132B800920EEB109F1FF39144B4C4410F8012F20
S1132B9003F8012F8442F9D14046BD46BDE8F883CD
S1132BA04FF40B710E48FDF783FBAB6CC6E7BEFB1D
S1132BB0F1F301FB13E18DF80090A964002EA9D173
S1132BC0204602F08FFB21460246034800F02AFF0C
S1132BD0A0E700BF2002002000A00440330300202F
S1132BE06470000008B5FFF74FFF0020BDE80840FF
S1132BF0FFF784BF2DE9F047444B454C0022C3E95D
S1132C0012222246012302F8013F0133332BFAD169
S1132C10404901F13F073E4601F15802142306F8EA
S1132C20013F01339642DBB2F9D13B4BC1F880300E
S1132C302723384881F88430FFF726FF0120FFF767
S1132C405DFF00285CD1DFF8E480DFF8D8A0A8F1AC
S1132C508E09454614F8012F15F8013F9A4240F2B7
S1132C60B311504601D0FDF723FB4C45F2D12B485C
S1132C70FFF70AFF2A48FFF707FF0120FFF73EFF8F
S1132C80C0BB284C17F8012F18F8013F9A424FF4A3
S1132C90E471204601D0FDF70BFBB742F2D10120CD
S1132CA0FFF72CFF00BB1E4C1E4E651D14F8013BA4
S1132CB094F83F209A4240F2D111304601D0FDF7FA
S1132CC0F7FAA542F2D10120FFF718FF20B94FF41B
S1132CD0EF711448FDF7ECFA1348FFF7D5FE002016
S1132CE0BDE8F047FFF70ABF40F2CF110D48FDF7EA
S1132CF0DFFAD8E74FF4E3710A48FDF7D9FAC0E7E1
S1132D0040F2B1110748FDF7D3FA9CE720020020F6
S1132D10730200207402002023242526B40200201C
S1132D20F40200206470000080700000330300206F
S1132D30014B1878704700BF7002002030B5164B65
S1132D4093E8030089B010336C4684E8030093E8E9
S1132D50070004AB03C323F8022B0021120CCDE9B6
S1132D600211CDF81B108DF81F101A7000F09AFD97
S1132D7005460146204602F0A3FA40B1294604A8BC
S1132D8002F09EFA08B9054B187009B030BD034B28
S1132D9001221A7009B030BD447000007002002096
S1132DA010B5124C01212046FDF730FB00221146DC
S1132DB00120FEF727F9012211460020FEF722F92F
S1132DC002210B48FEF7D2F90A210A48FEF7CEF990
S1132DD001210948FDF71AFB20460121FDF716FBE6
S1132DE020460021BDE81040FDF73EBD40410500EE
S1132DF00300200002001E0000250A0010B5012176
S1132E002048FDF703FB00210520FFF76BF804229F
S1132E10114600230520FFF78DF800210520FFF758
S1132E2061F80521084600230422FFF783F84FF0D8
S1132E3001110120FFF756F80123184604220A2144
S1132E40FFF778F8012308220B210220FFF772F81C
S1132E50012308220A210220FFF76CF84FF4803185
S1132E600320FFF73FF8012304220A210320FFF780
S1132E7061F801231A460B210320BDE81040FFF737
S1132E8059B800BF00350A001E4A137830B4052B28
S1132E9031D8DFE803F0090E1318220340F21111B0
S1132EA0194830BCFDF704BAF621174830BCFDF7C9
S1132EB0FFB9FA21144830BCFDF7FAB9FE211248D3
S1132EC030BCFDF7F5B951681469CB6904201B02C5
S1132ED023601070486030BC704753681069DC6927
S1132EE00168214301600825022405215D601170F9
S1132EF05C6030BC70474FF48A71034830BCFDF706
S1132F00D7B900BF74030020A0700000074A5369BA
S1132F1051685B0010B443F00103022401201470D3
S1132F2048605DF8044BCB62704700BF7403002017
S1132F30114A1378052B1BD8DFE803F0070D0F1295
S1132F401603B0210D48FDF7B3B9D2E90131D962B6
S1132F50012313707047FFF7D9BF03231370704721
S1132F60A8210648FDF7A4B9AC210448FDF7A0B98F
S1132F70B3210248FDF79CB974030020A07000003F
S1132F80114B1B78052B1AD8DFE803F0070B0F1140
S1132F901503DE210D48FDF78BB9C7210B48FDF75A
S1132FA087B9CB210948FDF783B9FFF7AFBFDA2111
S1132FB00648FDF77DB9D6210448FDF779B9E1212A
S1132FC00248FDF775B900BF74030020A07000002B
S1132FD01E4A08B51378052B31D8DFE803F00D1429
S1132FE01B2229030023D069137000F067FF02201D
S1132FF0BDE8084000F0A0BF40F229111448BDE824
S11330000840FDF755B940F22D111148BDE80840BC
S1133010FDF74EB940F231110D48BDE80840FDF707
S113302047B940F239110A48BDE80840FDF740B9F4
S113303040F235110648BDE80840FDF739B940F2C1
S113304043110348BDE80840FDF732B9740300207A
S1133050A07000002DE9F04F0C7ACD6883B08A4649
S11330608146ECB1012C00F0FA80022C00F00781BB
S1133070032C00F0FC80042C00F0D580052C00F01B
S11330800A81A31F012B40F2CE80082C00F00C8192
S1133090092C00F012810A2C40F0C580072301E0BE
S11330A040F2FF332B41DE0740F1BD8004EB4404C2
S11330B0854B05EBC41423449B001B68002B00F0D4
S11330C0BE809AF80040DAF80450ECB1012C00F00C
S11330D0C080022C00F0D680032C00F0CB80042C9E
S11330E000F0A780052C00F0DC80A31F012B40F228
S11330F0A080082C00F0DC80092C00F0DB800A2C76
S113310040F09780072301E040F2FF332B41D807BA
S113311040F18F8004EB44046B4B05EBC41423444F
S11331209B001B68002B00F08F809AF80840DAF8A7
S11331300C50DFF89C81DFF8A0B1122604B3012CF7
S113314032D0022C33D0032C34D0042C0ED0052CD6
S11331504AD0A31FDBB2012B08D9082C00F08280CF
S1133160092C00F095800A2C00F0878040F227415A
S11331704046FDF79DF89AF80870DAF80C3006E03E
S113318040F2FF332B41D907F0D52B46274604EBF9
S113319044040BEB0414012202FA05F5013EA56177
S11331A00BD01D463C46C9E74FF6C073EAE740F62C
S11331B0FF73E7E74FF47F43E4E7C7B197424BD08F
S11331C0022F62D0032F4FD0042F24D0052F65D0B7
S11331D0BA1FD2B2012A1ED9082F67D0092F6FD087
S11331E00A2F18D1072204E04FF6FF73CAE740F212
S11331F0FF321A41D2070ED507EB4707334A3F0186
S11332003A44012101FA03F320211360C9F80410A0
S113321003B0BDE8F08F40F20C412D480193FDF757
S113322047F8019BE8E740F2AE312948FDF740F842
S11332303CE740F2AE312648FDF73AF86AE77B21D5
S11332402448FDF735F83CE77C212248FDF730F8A7
S11332506BE74FF6C07359E74FF6C072C9E74FF6F4
S1133260C0731FE70F238DE74FF47F42C1E74FF48C
S11332707F4317E74FF47F4348E7072382E740F68D
S1133280FF730FE740F6FF7340E740F6FF72B0E7C5
S11332904FF4404376E74FF6FF7303E74FF6FF72B0
S11332A0A7E74FF6FF7331E70F23FBE60F22A0E7F2
S11332B00F232BE74FF4404328E74FF44043F1E654
S11332C04FF4404295E700BFE00085100CA0004693
S11332D0B46D0000A070000000A0004070B5394B30
S11332E0984284B004460D46164660D0364B984248
S11332F04DD036213548FCF7DBFF636B13F0010F2B
S11333004FF001033AD1A363636BDA074AD5012373
S1133310E3632F4BE9692A78D9616B7869688DF882
S11333200C208DF800302A7AEB6802912046694619
S11333308DF801200193FFF70BF8D5E90520697C8E
S11333402B7C024343EA4103A26431466364204672
S1133350FFF780FE4FF4E073E363E369194A236CDB
S1133360944243F4F073236426D0174B9C4213D049
S113337063211648FCF79CFF04B070BDE363636BE4
S1133380DB07C6D540211148FCF792FFC1E70121B4
S11333901048FDF73BF8B0E70F4B4FF480625A60DA
S11333A004B070BD3B210948FCF782FFAFE701215F
S11333B00A48FDF72BF8A0E7074B4FF400321A60D8
S11333C004B070BD00C0004000C40040A070000004
S11333D0740300200092040000E100E00082040075
S11333E01D4B10B55C6B1A6C1440A106DC631AD437
S11333F0620605D5184B5B6B5B0620D4FFF798FD7E
S1133400200605D5144B5B6B19061ED4FFF7B8FDD7
S1133410E20507D5104B5B6BDB0507D4BDE8104014
S1133420FFF7D6BD10BDFFF72FFDE1E74FF4B471F0
S11334300A48FCF73DFFBDE81040FFF7C9BD4FF453
S1133440AF710648FCF734FFD8E740F26311034834
S1133450FCF72EFFDAE700BF00C00040A0700000B8
S11334601D4B10B55C6B1A6C1440A106DC631AD4B6
S1133470620605D5184B5B6B5B0620D4FFF758FD3D
S1133480200605D5144B5B6B19061ED4FFF778FD97
S1133490E20507D5104B5B6BDB0507D4BDE8104094
S11334A0FFF796BD10BDFFF7EFFCE1E740F28D1189
S11334B00A48FCF7FDFEBDE81040FFF789BD40F265
S11334C083110648FCF7F4FED8E74FF4C4710348AF
S11334D0FCF7EEFEDAE700BF00C40040A070000075
S11334E0F8B503689B6813F0E00F044604D040F27B
S11334F0A1110D48FCF7DCFE022000F003FD0B4B8C
S1133500226960682168E668277A656998605A616B
S11335100124520000204C601E61CA621F739D6129
S113352059601870F8BD00BFA0700000740300203B
S113353010B5044682B0636B002BFCD1A368D80796
S11335400ED4C1B9A368DB0704D50420019100F0AF
S1133550F3FC0199204602B0BDE81040FEF744BFD9
S1133560A368DA07F6D50029EFD0204602B0BDE8FB
S11335701040FEF739BF0420019100F0C3FCA3689A
S11335800199204602B0BDE81040FEF72DBF00BFF0
S1133590F0B52DED028B0D4685B000210446FFF7F2
S11335A0C7FF414B9C4279D001236360636B002BBE
S11335B0FCD1A368DB0768D502236360636B002B2F
S11335C0FCD16A7829788DF80330E3600120ADF8E6
S11335D004308DF8083003238DF800208DF80200A4
S11335E08DF801108DF806308DF80730002A51D17E
S11335F069462046FEF70EFF2046FEF74BFF9FED7F
S11336002B8A95ED027A27EE087A0021FCEEC77A20
S1133610204617EE902AFEF7C7FED5ED037A67EE33
S1133620887A0121FCEEE77A204617EE902AFEF70D
S1133630BBFE68792A792B7E95F820606F69012199
S113364042EA4002A161E1612264E878AA78297C17
S11336505B0043EA860302430B436264EE69696AD2
S1133660134AA362E06A1760124D134A2E600343A3
S1133670E3621160636B002BFCD1104B4FF00062CE
S11336801A6005B0BDEC028BF0BD59210C48FCF763
S11336900FFE91E7042000F035FCA9E70121094859
S11336A0FCF7B4FE80E700BF0060044000007A44E9
S11336B094030020980300209C03002000E100E014
S11336C0BC700000800616001C4B10B51C6ADA6A38
S11336D01440E2079C6206D51B6ADB0724D4184B0E
S11336E0186800F0EBFBA00707D5144B1B6A990779
S11336F01FD4144B186800F0E1FB620709D50F4B87
S11337001B6A5B0706D4104BBDE81040186800F034
S1133710D5BB10BD0D48DE21FCF7CAFD0A4BBDE840
S11337201040186800F0CABBD4210848FCF7C0FD5B
S1133730D5E7D9210548FCF7BBFDDAE70060044072
S113374094030020980300209C030020BC70000018
S1133750174B93F8A420012A1ED019D3022A13D19F
S11337600021D3F8B42010B4102083F8C110D46918
S1133770506083F8A410536C002BFCD10D4B5DF802
S1133780044B186800F09ABB5F210B48FCF790BD0E
S11337904D210948FCF78CBDD3F8AC20D3F8B40014
S11337A09918C06981F854000132C3F8AC207047FD
S11337B0A0030020640400202871000038B51E4CCA
S11337C094F8A430D4F8B4204FF48061012B5163F1
S11337D014D00DD3022B05D181211848BDE83840FF
S11337E0FCF766BD85211548BDE83840FCF760BD8F
S11337F074211248BDE83840FCF75ABDD4F8AC3007
S113380023440222002504F1550104F1540083F8F5
S1133810545084F8A42001F05DFDD4F8B4304FF482
S113382000725A639A6B42F400729A639A6B22F4A0
S113383080629A6338BD00BFA00300202871000095
S1133840164B93F8A410D3F8B4204FF40070012958
S113385050631ED009D3022903D1A7211048FCF7D5
S113386027BDAB210E48FCF723BD01214FF4806036
S113387083F8C11083F8A4105063916B21F4007194
S11338809163916B002041F480619163C3F8AC00B3
S11338907047A3210248FCF70BBD00BFA003002022
S11338A02871000000487047F403002010B5044656
S11338B0032000F027FB236843F480732360636CC8
S11338C0002BFCD110236360636C002BFCD13E23DE
S11338D02361636C002BFCD13B236361636C002B7D
S11338E0FCD14FF400726263A26B044942F401728A
S11338F0A26381F8C130C1F8B44010BDA003002018
S113390070B572B6434BDC6A9A6B1440A0075C63D3
S113391012D404F0010505BB61050AD4A20505D43F
S1133920630701D5FFF714FF62B670BDFFF788FF88
S1133930F6E7FFF743FFF1E7374E96F8B020012A88
S113394004F0010523D016D3022A35D140F2D51153
S11339503248FCF7ADFC002DDED02F4E96F8B03087
S1133960012B23D00DD3022B2CD04FF401712B4803
S1133970FCF79EFCD0E74FF4E0712848FCF798FC74
S1133980C9E74FF4F9712548FCF792FCC4E7D6F86F
S1133990A82031688A4236D2B01801320079C6F8BC
S11339A0A820914298621ED9002DB5D04FF4FB7126
S11339B01A48FCF77DFCAFE74FF4ED711748FCF7AC
S11339C077FCA8E7D6F8B4301549012208685A6391
S11339D000F074FA032000F0AFFA002386F8C03038
S11339E086F8B03098E7D6F8B4309A6B022122F00A
S11339F0020286F8B0109A639A6B42F001029A634D
S1133A00002D89D0E0E74FF4E7710448FCF750FC3F
S1133A1081E700BF00A00440A0030020287100003B
S1133A2068040020F8B50F4C0546032016460F46DF
S1133A3000F068FA2046394640F8046B0027012656
S1133A4084F8B07084F8C06001F044FCAB6BC4F837
S1133A50A87043F00203C4F8B45084F8B060AB63B8
S1133A60F8BD00BFA00300202DE9F04FB74BB84DBF
S1133A70064693E807009DB003F110040DF16008B9
S1133A8088E8070094E8030003F11C020090ADF8F5
S1133A90041092E803000DF10C0903F1280289E8EF
S1133AA0030092E8030003F134020990ADF82810F2
S1133AB092E8030003F14002002306950C908DF870
S1133AC03410ADF820301B93CDF80630ADF8143027
S1133AD00793CDF82A30CDF835308DF8393092E897
S1133AE003009C4A0F900F0CADF8401007CA15ACA8
S1133AF003C4228098E80700974C8DF8427084E84C
S1133B0007003268ADF84330CDE9125342F0800229
S1133B1032608DF84530ADF85030736C002BFCD119
S1133B2001228E498E4C3046FFF77CFF94F8C0305A
S1133B30002BFBD194F8C13003F0FF05002BF9D121
S1133B40884FDFF834B2BA4608E018F8013B1AF897
S1133B50012F9A4201D0FCF7ABFB01350A2D4FF03F
S1133B60F6015846F1DD484601F0BCFB49460246E1
S1133B703046FFF757FF94F8C030002BFBD194F880
S1133B80C13003F0FF05002BF9D1E946B846DFF850
S1133B90E8A108E019F8013B18F8012F9A4201D076
S1133BA0FCF786FB0135042D4FF0FF015046F1DD93
S1133BB009A801F097FB09A902463046FFF732FF36
S1133BC094F8C030002BFBD194F8C130002BFBD10A
S1133BD094F85730002B40F0A0800122624930460F
S1133BE0FFF720FF94F8C030002BFBD194F8C130CC
S1133BF003F0FF05002BF9D10DF11809B846DFF8E1
S1133C0078A108E019F8013B18F8012F9A4201D075
S1133C10FCF74EFB0135022D4FF488715046F1DD5F
S1133C200A2252493046FFF7FDFE94F8C030002BBB
S1133C30FBD10220FEF724FD94F8C130002B7ED086
S1133C4002224B493046FFF7EDFE94F8C030002BBA
S1133C50FBD194F8C130002BFBD194F8C130002B78
S1133C6067D10FA801F03EFB0FA902463046FFF7CB
S1133C70D9FE94F8C030002BFBD194F8C13003F086
S1133C80FF05002BF9D10DF13009B846DFF8E8A0A3
S1133C9008E019F8013B18F8012F9A4201D0FCF70B
S1133CA007FB0135032D40F229115046F1DD15A81B
S1133CB001F018FB15A902463046FFF7B3FE94F84D
S1133CC0C030002BFBD194F8C13003F0FF05002B6A
S1133CD0F9D10DF14808DFF8A09008E018F8013B8D
S1133CE017F8012F9A4201D0FCF7E2FA0135022DB0
S1133CF040F233114846F1DD94F857309BB91D4B1F
S1133D00186800F0E5F8336823F080033360736CBF
S1133D10002BFCD11DB0BDE8F08F4FF48471164820
S1133D20FCF7C6FA59E740F235111348FCF7C0FA1C
S1133D30E5E740F221111048FCF7BAFA91E740F2A6
S1133D4019110D48FCF7B4FA7AE700BFDC700000E3
S1133D503132330060710000F40300204871000028
S1133D60A0030020F30300204C71000050710000F8
S1133D705C710000640400202871000030B5414BE0
S1133D80984285B004460D4676D040F273113E4801
S1133D90FCF78EFA01232361636C002BFCD12369A9
S1133DA0D80763D5636C002BFCD12361636C002BB3
S1133DB0FCD13649A86A364A0860E96A3548116078
S1133DC02A68297902928DF80C10AA79A9688DF8CD
S1133DD00D200191EA7980F8C030694620468DF8BB
S1133DE000308DF80E20FEF7B7FB636C002BFCD17E
S1133DF0D5E907016A69AB69024343EA4103A26555
S1133E006365636C002BFCD1697900292AD1636C4A
S1133E10002BFCD1C0236360636C002BFCD1A3682E
S1133E209907FCD5A368DA07FCD5A3689B0713D0D0
S1133E30636C002BFCD1134B01229C42626303D1BF
S1133E40154B4FF480021A602046FFF72FFD2046E1
S1133E50FFF70AFE05B030BD4FF4CF710A48FCF7F6
S1133E6027FAE5E72046FEF759FBD0E74FF4BC718B
S1133E700548FCF71DFA95E701210848FCF7C6FA46
S1133E8088E700BF00A004402871000064040020FB
S1133E9068040020A003002000E100E090171A004D
S1133EA0014B93F8C0007047A003002072B6024B88
S1133EB000221A6062B670476C04002072B6034A8E
S1133EC013680343136062B6704700BF6C0400209C
S1133ED072B6034A136823EA0003136062B670479C
S1133EE06C040020014B1868704700BF6C0400206C
S1133EF0034B0022C3E90022C3E902221A6170477E
S1133F007004002008B572B604280AD9084B53F887
S1133F102030092B03D95C210648FCF7C9F962B6A5
S1133F2008BD034A52F82030013342F82030F0E74C
S1133F30700400206C71000072B6042805D8044A8D
S1133F4052F82030013B42F8203062B6704700BF7F
S1133F50700400200A4B1A6842B95A6832B99A6848
S1133F602AB9DB6801204BB9FDF75CBC7047054AF0
S1133F70136923F00403136130BF7047FDF72CBCB1
S1133F807004002000ED00E080B5554C554F94E8D6
S1133F900F008AB0103401AE86E80F000FCC05ADD7
S1133FA00FC522682A80504B01227A64DB6C1B0EF9
S1133FB040F091804D494E484AF6E8520A60026842
S1133FC042F0040202600B604A4A136843F400534F
S1133FD01360494A136A23F4441343F488131362A5
S1133FE00024304602258DF800408DF80140FDF78D
S1133FF08FFE68468DF80150FDF7BAFC05A8FDF761
S113400021FA3E48FCF75CFE012211460320FCF72E
S1134010F9FF05211120FDF7A9F82246214628467B
S1134020FCF7F0FFFEF704FCFFF75CFFC70620D4A3
S113403043213348FCF73CF91BE0FFF753FFC60666
S113404022D4FFF74FFF450724D4FFF74BFFC407E3
S113405026D4FFF747FF800728D4FFF743FF010763
S11340602AD4FFF73FFF82062CD4FFF73BFF430619
S11340702ED4FFF737FF10F0170FDED1FFF76AFFDA
S1134080FFF730FFC606DCD5FEF776FCFFF72AFF04
S11340904507DAD5FEF7E6FBFFF724FFC407D8D5BA
S11340A0FEF7F2FBFFF71EFF8007D6D5FEF7F8FBFD
S11340B0FFF718FF0107D4D5FEF7FEFBFFF712FF49
S11340C08206D2D5FEF77EFCFFF70CFF4306D0D55F
S11340D0FEF792FCCDE7012B7FF47BAF74E700BFC2
S11340E09471000000000E40B081E00F90310E404A
S11340F098310E4064310E4000400E4080BA8C016D
S1134100B871000081F0004102E000BF83F0004379
S113411030B54FEA41044FEA430594EA050F08BF5E
S113412090EA020F1FBF54EA000C55EA020C7FEA22
S1134130645C7FEA655C00F0E2804FEA5454D4EB9F
S11341405555B8BF6D420CDD2C4480EA020281EA69
S1134150030382EA000083EA010180EA020281EAA1
S11341600303362D88BF30BD11F0004F4FEA0131F3
S11341704FF4801C4CEA113102D0404261EB410102
S113418013F0004F4FEA03334CEA133302D0524288
S113419063EB430394EA050F00F0A780A4F1010444
S11341A0D5F1200E0DDB02FA0EFC22FA05F280187E
S11341B041F1000103FA0EF2801843FA05F3594164
S11341C00EE0A5F120050EF1200E012A03FA0EFCE3
S11341D028BF4CF0020C43FA05F3C01851EBE3710D
S11341E001F0004507D54FF0000EDCF1000C7EEB2A
S11341F000006EEB0101B1F5801F1BD3B1F5001F68
S11342000CD349085FEA30004FEA3C0C04F1010486
S11342104FEA445212F5800F80F09A80BCF1004FAF
S113422008BF5FEA500C50F1000041EB045141EA31
S1134230050130BD5FEA4C0C404141EB010111F432
S1134240801FA4F10104E9D191F0000F04BF0146DD
S11342500020B1FA81F308BF2033A3F10B03B3F1BB
S113426020020CDA0C3208DD02F1140CC2F10C024B
S113427001FA0CF021FA02F10CE002F11402D8BFA9
S1134280C2F1200C01FA02F120FA0CFCDCBF41EA75
S11342900C019040E41AA2BF01EB0451294330BD44
S11342A06FEA04041F3C1CDA0C340EDC04F1140421
S11342B0C4F1200220FA04F001FA02F340EA0300F8
S11342C021FA04F345EA030130BDC4F10C04C4F13E
S11342D0200220FA02F001FA04F340EA030029461E
S11342E030BD21FA04F0294630BD94F0000F83F468
S11342F0801306BF81F480110134013D4EE77FEA4B
S1134300645C18BF7FEA655C29D094EA050F08BF96
S113431090EA020F05D054EA000C04BF1946104677
S113432030BD91EA030F1EBF0021002030BD5FEABB
S1134330545C05D14000494128BF41F0004130BDE3
S113434014F580043CBF01F5801130BD01F0004537
S113435045F0FE4141F470014FF0000030BD7FEAAA
S1134360645C1ABF194610467FEA655C1CBF0B46A5
S1134370024650EA013406BF52EA033591EA030FBC
S113438041F4002130BD00BF90F0000F04BF0021B4
S1134390704730B54FF4806404F132044FF00005E7
S11343A04FF0000150E700BF90F0000F04BF002160
S11343B0704730B54FF4806404F1320410F00045C6
S11343C048BF40424FF000013EE700BF42004FEAC1
S11343D0E2014FEA31014FEA02701FBF12F07F433E
S11343E093F07F4F81F06051704732F07F4208BFF5
S11343F0704793F07F4F04BF41F40021704730B5FC
S11344004FF4607401F0004521F000411CE700BF47
S113441050EA010208BF704730B54FF000050AE0CA
S113442050EA010208BF704730B511F0004502D5CB
S1134430404261EB41014FF4806404F132045FEACD
S1134440915C3FF4D8AE4FF003025FEADC0C18BF76
S113445003325FEADC0C18BF033202EBDC02C2F168
S1134460200300FA03FC20FA02F001FA03FE40EAFA
S11344700E0021FA02F11444BDE600BF70B54FF0FE
S1134480FF0C4CF4E06C1CEA11541DBF1CEA1355DC
S113449094EA0C0F95EA0C0F00F0DEF82C4481EA44
S11344A0030621EA4C5123EA4C5350EA013518BF64
S11344B052EA033541F4801143F4801338D0A0FB51
S11344C002CE4FF00005E1FB02E506F00042E0FBFE
S11344D003E54FF00006E1FB03569CF0000F18BF04
S11344E04EF0010EA4F1FF04B6F5007F64F54074AC
S11344F004D25FEA4E0E6D4146EB060642EAC6213F
S113450041EA55514FEAC52040EA5E504FEACE2EAB
S1134510B4F1FD0C88BFBCF5E06F1ED8BEF1004FAE
S113452008BF5FEA500E50F1000041EB045170BD2A
S113453006F0004646EA010140EA020081EA03016E
S1134540B4EB5C04C2BFD4EB0C0541EA045170BD6A
S113455041F480114FF0000E013C00F3AB8014F1E4
S1134560360FDEBF002001F0004170BDC4F100042D
S1134570203C35DA0C341BDC04F11404C4F12005AE
S113458000FA05F320FA04F001FA05F240EA020009
S113459001F0004221F0004110EBD37021FA04F63F
S11345A042EB06015EEA430E08BF20EAD37070BDF9
S11345B0C4F10C04C4F1200500FA04F320FA05F058
S11345C001FA04F240EA020001F0004110EBD3705A
S11345D041F100015EEA430E08BF20EAD37070BDCA
S11345E0C4F1200500FA05F24EEA020E20FA04F3A3
S11345F001FA05F243EA020321FA04F001F0004152
S113460021FA04F220EA020000EBD3705EEA430EC2
S113461008BF20EAD37070BD94F0000F0FD101F0F1
S11346200046400041EB010111F4801F08BF013C2A
S1134630F7D041EA060195F0000F18BF704703F068
S11346400046520043EB030313F4801F08BF013DEF
S1134650F7D043EA0603704794EA0C0F0CEA1355AB
S113466018BF95EA0C0F0CD050EA410618BF52EA65
S11346704306D1D181EA030101F000414FF000006B
S113468070BD50EA410606BF1046194652EA430679
S113469019D094EA0C0F02D150EA013613D195EAED
S11346A00C0F05D152EA03361CBF104619460AD135
S11346B081EA030101F0004141F0FE4141F470013F
S11346C04FF0000070BD41F0FE4141F4780170BD2F
S11346D070B54FF0FF0C4CF4E06C1CEA11541DBF94
S11346E01CEA135594EA0C0F95EA0C0F00F0A7F896
S11346F0A4EB050481EA030E52EA03354FEA0131C3
S113470000F088804FEA03334FF0805545EA1313D5
S113471043EA12634FEA022245EA111545EA10659D
S11347204FEA00260EF000419D4208BF964244F134
S1134730FD0404F5407402D25B084FEA3202B61A53
S113474065EB03055B084FEA32024FF480104FF427
S1134750002CB6EB020E75EB030E22BFB61A75469B
S113476040EA0C005B084FEA3202B6EB020E75EB2E
S1134770030E22BFB61A754640EA5C005B084FEA96
S11347803202B6EB020E75EB030E22BFB61A754663
S113479040EA9C005B084FEA3202B6EB020E75EB6E
S11347A0030E22BFB61A754640EADC0055EA060E2F
S11347B018D04FEA051545EA16754FEA06164FEA72
S11347C0C30343EA52734FEAC2025FEA1C1CC0D11E
S11347D011F4801F0BD141EA00014FF000004FF0AB
S11347E0004CB6E711F4801F04BF01430020B4F16C
S11347F0FD0C88BFBCF5E06F3FF6AFAEB5EB030C24
S113480004BFB6EB020C5FEA500C50F1000041EB20
S1134810045170BD0EF0004E4EEA113114EB5C04ED
S1134820C2BFD4EB0C0541EA045170BD41F48011C0
S11348304FF0000E013C90E645EA060E8DE60CEAC8
S1134840135594EA0C0F08BF95EA0C0F3FF43BAFE5
S113485094EA0C0F0AD150EA01347FF434AF95EA9C
S11348600C0F7FF425AF104619462CE795EA0C0F80
S113487006D152EA03353FF4FDAE1046194622E74D
S113488050EA410618BF52EA43067FF4C5AE50EA27
S113489041047FF40DAF52EA43057FF4EBAE12E717
S11348A04FEA4102B2F1E04324BFB3F5001CDCF14E
S11348B0FE5C0DD901F0004C4FEAC0024CEA507086
S11348C0B2F1004F40EB830008BF20F001007047B5
S11348D011F0804F21D113F13872BCBF01F00040B8
S11348E0704741F480114FEA5252C2F11802C2F1EA
S11348F0200C10FA0CF320FA02F018BF40F001006B
S11349004FEAC1234FEAD32303FA0CFC40EA0C001C
S113491023FA02F34FEA4303CCE77FEA625307D159
S113492050EA01331EBF4FF0FE4040F44000704790
S113493001F0004040F0FE4040F40000704700BF2A
S113494008B5074B044613B10021AFF30080054BB3
S11349501868836A03B19847204602F0F3F800BF51
S113496000000000C871000070B50D4E0D4CA41B72
S1134970A4100025A54209D10B4E0C4C02F0AAF953
S1134980A41BA4100025A54205D170BD56F82530FE
S113499098470135EEE756F8253098470135F2E798
S11349A0E4010020E4010020E4010020E8010020EB
S11349B002440346934200D1704703F8011BF9E710
S11349C02DE9F04788B0002B149F109EDDE9121AE0
S11349D01D4627F02007BBBF03F100431D460023FB
S11349E02D231446B8BF1446462F0B7004D0452F10
S11349F000D10136022300E0032307AA049206AA89
S1134A00CDE902A2CDE9003622462B4600F000FD96
S1134A10472F804602D1119BDB0726D5462F08EB92
S1134A20060911D198F80030302B0AD10022002356
S1134A302046294602F0DEF818B9C6F10106CAF884
S1134A400060DAF800309944002200232046294609
S1134A5002F0D0F838B93022079B4B4505D2591CD7
S1134A6007911A70F8E7CDF81C90079B159AA3EBF1
S1134A7008034046136008B0BDE8F087F7B5002985
S1134A800446BABF49422D232B23092904F8022BDB
S1134A90437020DD0DF107031F460A2691FBF6F54E
S1134AA006FB15113031092D03F8011C03F1FF3207
S1134AB0294609DC3031023B02F8011CBB42224684
S1134AC004D3101A03B0F0BD1346E7E713F8012B23
S1134AD004F8012BF2E7302319448370021DC170DE
S1134AE0EFE700002DE9F04F91B00C46DDF8688047
S1134AF016461F46054601F049FA0368089318460E
S1134B0000F0F0FB00230E93D8F80030099007332F
S1134B1023F0070303F1080294F818A0D4F800B0B6
S1134B20C8F80020D3E90023C4E91223D4E9128988
S1134B3029F000430B93CDF828804FF0FF32A94BA6
S1134B40DDE90A0102F088F870BB4FF0FF32A54B93
S1134B50DDE90A0102F062F830BB0022002340467E
S1134B60494602F051F810B12D2384F843309E4A8F
S1134B709E4BBAF1470F8CBF90469846032323619E
S1134B802BF0040323604FF00009009733460FAA6B
S1134B902146284600F0ECF9013040F090804FF0B7
S1134BA0FF3011B0BDE8F08F42464B4640464946BF
S1134BB002F052F810B18E4A8E4BDAE76368591C42
S1134BC04BF480620EA90DA840D1062363600DF159
S1134BD03303CDE901234FF0000C63682260CDE973
S1134BE0030A009342464B46CDE9051C2846FFF7CD
S1134BF0E7FE0AF0DF03472B804609D10D9BD81C42
S1134C0002DB6268934247DDAAF1020A5FFA8AFA7C
S1134C10BAF1650F0D9924D80139524604F15000B8
S1134C200D91FFF72BFF0E9A1318012A8146236179
S1134C3002DC2268D10701D5013323619DF83330AA
S1134C40002BA2D02D2384F843309EE7BAF1670FDE
S1134C5000F07881BAF1470FB9D1002BB7D1012305
S1134C60B4E7BAF1660F19D1002963680CDD21613C
S1134C7013B92268D20702D501330B4423610D9B7B
S1134C80A3654FF00009D9E713B92268D00701D50D
S1134C900233F3E70123F1E74FF0670ADDE90D3250
S1134CA0934205DB22682361D107E8D50133E5E7A8
S1134CB0002BD4BFC3F1020301231344DEE72368AE
S1134CC05A0507D42369424631462846B84701307D
S1134CD02BD164E7BAF1650F40F2DD800022002396
S1134CE0D4E9120101F086FF002833D00123424A9F
S1134CF031462846B84701303FF451AFDDE90D2372
S1134D009A4202DB2368D8070FD5DDE90823314630
S1134D102846B84701303FF442AF4FF0000804F191
S1134D201A090E9B013B434509DC23689B0700F1EC
S1134D300481E0680F9B9842B8BF184631E701230D
S1134D404A4631462846B84701303FF428AF08F1B7
S1134D500108E6E70D9B002B2BDC0123264A314694
S1134D602846B84701303FF41AAF0D9B23B90E9B78
S1134D7013B92368D907D8D5DDE908233146284675
S1134D80B84701303FF40BAF4FF0000904F11A0AA1
S1134D900D9B5B424B4501DC0E9B94E7012352467D
S1134DA031462846B84701303FF4F9AE09F101090C
S1134DB0EEE70E9AA36D9A42A8BF1A46002A9146BE
S1134DC007DD1346314642462846B84701303FF4D2
S1134DD0E6AE04F11A034FF0000B29EAE9790A93CD
S1134DE016E000BFFFFFEF7FD0710000CC71000020
S1134DF0D8710000D4710000DC71000001230A9A0C
S1134E0031462846B84701303FF4C9AE0BF1010BD7
S1134E10D4F858A0AAEB09035B45EFDCDDE90D23C8
S1134E209A42D04415DB2368DA0712D40E9B0D99FD
S1134E30A3EB0A02A3EB010A9245A8BF9246BAF17A
S1134E40000F0EDC4FF000082AEAEA7A04F11A098E
S1134E5019E0DDE9082331462846B8470130E5D199
S1134E609DE65346424631462846B8470130E9D1CB
S1134E7095E601234A4631462846B84701303FF4B7
S1134E808EAE08F10108DDE90D239B1AA3EB0A039A
S1134E904345EEDC49E70E9A012A01DCDB073AD5EB
S1134EA00123424631462846B84701303FF477AEE5
S1134EB0DDE9082331462846B847013008F10108E6
S1134EC03FF46DAE0E9B002203F1FF3AD4E91201C8
S1134ED0002301F08FFEC8B95346424631462846A6
S1134EE0B84701300ED15AE60123524631462846CE
S1134EF0B84701303FF453AE08F101080E9B013B63
S1134F004345F1DC4B4604F15002DDE64FF0000866
S1134F1004F11A0AF2E70123DFE701234A46314686
S1134F202846B84701303FF43AAE08F10108E36877
S1134F300F9A9B1A4345F0DCFBE64FF0000804F19E
S1134F401909F4E7002B3FF48AAE4FF0000CCDE9C9
S1134F50051C0DF133012260CDE9030ACDE90121DD
S1134F60009342464B462846FFF72AFD804645E615
S1134F702DE9F04791461F468A680B69DDF82080C9
S1134F809342B8BF1346C9F8003091F8432006464F
S1134F900C4612B10133C9F800302368990642BFA8
S1134FA0D9F800300233C9F80030256815F0060539
S1134FB007D104F1190AE368D9F800209B1AAB421F
S1134FC028DC94F843302268003318BF012392068A
S1134FD02DD404F1430239463046C047013020D075
S1134FE02368E568D9F8002003F00603042B08BF02
S1134FF0AD1AA36822690CBF25EAE5750025934222
S1135000C4BF9B1AED184FF000091A344D451AD14C
S1135010002008E00123524639463046C04701309B
S113502003D14FF0FF30BDE8F0870135C3E7E11845
S11350305A1C302081F84300224494F8451082F829
S113504043100233C5E70123224639463046C047A0
S11350500130E6D009F10109D8E700002DE9F04359
S113506001F1430C0C46097E85B06E2917460646AD
S113507098460C9A00F0B38022D8632936D00AD817
S1135080002900F0B980582900F0838004F142051A
S113509084F8421032E0642901D06929F6D12068ED
S11350A01368050603F104012AD51B681160002B5F
S11350B003DA2D225B4284F843206F480A2239E048
S11350C0732900F09D8008D86F2920D07029DDD184
S11350D0236843F02003236003E0752917D078295F
S11350E0D4D1782384F84530644855E01368191DF9
S11350F01B68116004F1420584F8423001238CE0FE
S11351001B68116010F0400F18BF1BB2CFE7136883
S11351102568181D1060280601D51B6802E0680682
S1135120FBD51B8854486F2914BF0A22082200218A
S113513084F843106568A560002DC0F2958021684D
S113514021F004012160002B3DD1002D40F08E8020
S11351506546082A0BD12368DB0708D523696268F2
S11351609A42DEBF302305F8013C05F1FF35ACEB74
S113517005032361CDF800803B4603AA214630464F
S1135180FFF7F6FE01304DD14FF0FF3005B0BDE81A
S1135190F083394884F84510136821681D1D1B6885
S11351A015600A060BD5CA0744BF41F020012160EF
S11351B01BB9226822F0200222601022B7E74D06B4
S11351C048BF9BB2EFE76546B3FBF2F102FB113334
S11351D0C35C05F8013D0B460029F5D1B9E7136816
S11351E025686169181D106028061B6801D51960BF
S11351F002E06A06FBD51980002323616546B9E7FE
S11352001368191D11601D6862680021284600F0AA
S1135210D7FE08B1401B606063682361002384F8F3
S11352204330A7E723692A4639463046C047013050
S1135230AAD023689B0713D4E068039B9842B8BFA5
S11352401846A3E701234A4639463046C047013091
S11352509AD00135E368039A9B1AAB42F2DCEBE780
S1135260002504F11909F5E7002BACD1037884F883
S1135270423004F142056CE7DE710000EF7100007A
S11352800EB400B59CB01DAB029006906FF00041C7
S1135290094807910491094953F8042B05910068C2
S11352A0019302A901F0D2FA029B00221A701CB0E9
S11352B05DF804EB03B07047140000200802FFFF00
S11352C010F8012B11F8013B012A28BF9A42F7D0AC
S11352D0D01A7047034611F8012B03F8012B002A5A
S11352E0F9D17047034613F8012B002AFBD1181A91
S11352F0013870472DE9F74F03690C69A3428046D2
S1135300C0F28280013C01F114074FEA840C00F1E1
S1135310140657F8245056F8240006EB0C03013504
S113532007EB0C090193B0FBF5F595B34FF0000AB8
S11353303846B646D34650F8042B93B205FB03A374
S11353404FEA134A9BB2ABEB0303120CDEF800B036
S113535005FB02A213FA8BF34FEA124A1FFA82FBEF
S1135360DEF80020CBEB124202EB23429BB243EA6D
S1135370024381454FEA224B4EF8043BDBD256F8F8
S11353800C3033B9019B043B9E421A4630D3C8F813
S11353901040404601F084F8002825DB01353046F2
S11353A04FF0000C57F8042BD0F800E093B2ACEBAC
S11353B00303120C13FA8EF3C2EB1E4202EB2342D8
S11353C09BB243EA0243B9454FEA224C40F8043BFE
S11353D0E8D256F8242006EB84032AB9043B9E4203
S11353E01A460BD3C8F81040284603B0BDE8F08F26
S11353F01268043B002ACAD1013CC5E71268043B89
S1135400002AEFD1013CEAE70020EEE700000000AB
S11354102DE9F04F456A97B016461F460446DDF85D
S11354208C80CDE902673DB9102000F0BDFD6062BB
S1135430C0E901550560C560636A196851B15A68CD
S11354404A60012393408B60204600F048FE636A63
S113545000221A603B1EBBBF23F0004303930023CA
S11354600122ACBFC8F80030C8F80020B24BDDF808
S11354700C8033EA08031BD1229A42F20F731360A3
S1135480029B23B9C8F31300002800F04F85249B26
S113549053B9AA4B21E0AA4B05930833249A13600D
S11354A0059817B0BDE8F08FA44B05930333F5E7D7
S11354B0DDE90267002200233046394601F09AFBF9
S11354C0824660B1229A01231360249B002B00F0D2
S11354D02A859C4B249A1360013B0593E0E714ABA7
S11354E0019315AB009332463B46204601F04FF83A
S11354F0C8F30A558346002D7CD0C7F3130343F049
S11355007F59B04649F44019A5F2FF35CDF84CA0B7
S113551000228D4B40464946FEF7F8FD80A3D3E9AF
S11355200023FEF7ABFF80A3D3E90023FEF7F0FDD1
S1135530064628460F46FEF737FF7DA3D3E900232E
S1135540FEF79CFF02460B4630463946FEF7E0FD67
S113555006460F4601F096FB0022824600233046A1
S1135560394601F051FB48B15046FEF71DFF324663
S11355703B4601F03FFB08B90AF1FF3ABAF1160FB6
S113558059D8724901EBCA01DDE90223D1E90001CE
S113559001F058FB002850D00AF1FF3A002312937F
S11355A0149B5D1BB5F1010849BFC5F1010300233C
S11355B008934FF0000858BF0893BAF1000F3EDB80
S11355C00023D044CDF834A00993209B092B00F28A
S11355D09080052BC4BF043B2093209BA3F10203BE
S11355E0CCBF00250125032B00F28F80DFE803F0F8
S11355F07D7F3171DDE914531D4405F232402028CA
S113560013DDC0F14000029B08FA00F805F21240D5
S113561023FA00F048EA0000FEF7B6FE01238046B4
S1135620A1F1F879013D139372E7029BC0F12000C8
S113563003FA00F0F0E70123B1E71290B0E7089B0A
S1135640A3EB0A030893CAF10003099300230D9303
S1135650BBE701230C93219B002B59DD069399464C
S1135660666A00227260042202F114009842716892
S113567070D9204600F0FFFC636A30601B68059314
S1135680B9F10E0F00F2EB80002D00F0E8809DEDE3
S1135690027BBAF1000F8DED107B79DD2B4A0AF005
S11356A00F0302EBC30393ED007B4FEA2A16F006C7
S11356B08DED0A7B6AD5264BDDE91001D3E9082379
S11356C0FFF706F8CDE9020106F00F060325204F87
S11356D051E001230C93219B534403F101090693E8
S11356E04B46012BB8BF0123BAE70023B2E70023DE
S11356F0F0E70125002320930C954FF0FF33069328
S11357009946002212232192AAE701230C93F4E77D
S11357100123069399461A46F5E700BFAFF30080CC
S113572061436F63A787D23FB3C8608B288AC63FA3
S1135730FB799F501344D33F0000F07F09720000AF
S113574000720000DD7100000000F83F38720000B4
S11357501072000001317160520085E7F10708D52D
S1135760DDE90A01D7E90023FEF788FECDE90A0145
S1135770013576100837002EF0D1DDE90A23DDE982
S11357800201FEF7A5FFCDE902011AE002259EE71A
S113579000F0A080CAF100069F4BA04F06F00F0254
S11357A003EBC203D3E90023DDE91001FEF766FE33
S11357B0CDE90201361100230225002E7FD1002BF2
S11357C0E1D1129B002B00F08780DDE90267002203
S11357D0934B3046394601F017FA00287CD0B9F1D2
S11357E0000F79D0069B002B35DD0AF1FF330A93B5
S11357F0394600228B4B3046FEF740FECDE90201CC
S1135800069F01352846FEF7CFFDDDE90223FEF7AA
S113581035FE0022844BFEF77BFC0546A1F1507651
S1135820002F5DD10022814BDDE90201FEF76EFC01
S11358302A463346CDE9020101F004FA002840F07B
S113584088822A4606F10043DDE9020101F0DCF911
S1135850002840F07C82DDE91023CDE90223159B6A
S1135860002BC0F25081BAF10E0F00F34C816A4B49
S113587003EBCA0393ED007B219B002B8DED067B8C
S113588080F2D880B9F1000F00F3D48040F05E823A
S11358900022664B51EC170BFEF7F0FDDDE9022305
S11358A001F0C6F94F464E46002840F03482059B6D
S11358B0059A5D1C312313700AF1010A2FE2F207E5
S11358C005D5D7E90023FEF7D9FD0135012376106C
S11358D0083772E7022574E7CDF828A04F4691E710
S11358E04D4B03EBC70353E902010C9B002B47D03C
S11358F002460B4600204E49FEF7EAFE2A4633468E
S1135900FEF704FCCDE90E01059DDDE9020101F07D
S1135910B9F90646FEF748FD02460B46DDE90201E9
S1135920FEF7F4FB303605F8016BDDE90E23CDE913
S1135930020101F069F9002863D1DDE902230020A6
S11359403749FEF7E3FBDDE90E2301F05DF900289A
S113595040F0B780059BEB1A9F427FF77CAF002293
S1135960304BDDE90E01FEF789FD0022CDE90E0181
S11359702C4BDDE90201FEF781FDCDE90201C4E70C
S113598033462A46FEF77AFD059BCDE90E01DD1963
S11359901E46DDE9020101F075F90746FEF704FD34
S11359A0303702460B46DDE90201FEF7AFFB06F88D
S11359B0017BAE42CDE902014FF0000226D11C4B1F
S11359C0DDE90E01FEF7A4FB02460B46DDE9020108
S11359D001F038F9002874D1DDE90E2300201449C0
S11359E0FEF794FB02460B46DDE9020101F00CF9D7
S11359F000283FF430AF15F8013C302B05F1FF329D
S1135A0002D0DDF828A04AE01546F4E7054BFEF77E
S1135A1035FDCDE90201BCE73872000010720000C8
S1135A200000F03F0000244000001C40000014402F
S1135A300000E03FDDE90267059DDDE9062330460D
S1135A403946FEF745FE01F01DF98046FEF7ACFC31
S1135A50DDE90623FEF712FD02460B4630463946C1
S1135A6008F13006FEF752FB05F8016B059EAE1BEC
S1135A70B14502460B4639D1FEF74AFBDDE9062360
S1135A8006460F4601F0DEF8C8B9DDE906233046C4
S1135A90394601F0AFF810B118F0010F0FD1594693
S1135AA0204600F01CFB0023229A2B700AF101030C
S1135AB01360249B002B3FF4F3AC1D60F0E4CDF89D
S1135AC028A015F8012C392A05F1FF3308D1059ACD
S1135AD09A4209D10A9B01330A9330231370134667
S1135AE01A7801321A708CE71D46EAE700229B4BB4
S1135AF0FEF7C4FC0022002306460F4601F07AF8A4
S1135B0000289AD0CBE70C9A002A00F08B80209AC8
S1135B10012A6EDC139A002A67D003F23343DDE9CD
S1135B200857089A01211A4420460892984400F024
S1135B3076FB0646002D0CDDB8F1000F09DD454566
S1135B40089A2B46A8BF4346D21A0892ED1AA8EB2E
S1135B500308099BEBB10C9B002B67D08FB1314636
S1135B603A46204600F0FAFB5A46014606462046CD
S1135B7000F05EFB59460A90204600F0B0FA0A9BFA
S1135B809B46099BDA1B04D05946204600F0E6FBED
S1135B9083460121204600F042FB0D9B0746002B63
S1135BA000F0CB811A460146204600F0D7FB209B2B
S1135BB0012B074640DC029B002B39D1039BC3F326
S1135BC01303002B36D1039B23F000431B0D1B054D
S1135BD02BB1089B0133089308F1010801230993B1
S1135BE00D9B002B2AD1012030E0149BC3F1360316
S1135BF095E7099B09F1FF37BB42BFBF099B099792
S1135C00FA1A0D9BBBBF9B180D93DF1B0027B9F13C
S1135C10000FB5BF089B089DA3EB09054B46B8BF11
S1135C2000237EE7DDE908570C9E83E7099AABE77A
S1135C300023D4E7029BD2E7002309933B6907EBD7
S1135C408303186900F09DFAC0F12000404410F06D
S1135C501F0047D0C0F12003042B3BDD089BC0F19B
S1135C601C000344089305448044089B002B05DD75
S1135C7059461A46204600F0BFFB8346B8F1000F90
S1135C8005DD39464246204600F0B6FB0746129B26
S1135C9053B33946584600F003FC002824DA0023A5
S1135CA059460A22204600F031FA0C9B0AF1FF3AC9
S1135CB08346002B00F04881002331460A22204607
S1135CC000F024FA069B002B06464FDC209B022B97
S1135CD04CDD11E0C9D0089A1C331A4408921D44C3
S1135CE09844C2E70346F6E7B9F1000F38DC209B7D
